{
  "contractName": "checkBalance",
  "abi": [
    {
      "constant": true,
      "inputs": [
        {
          "name": "owner",
          "type": "address"
        }
      ],
      "name": "checkBalanceOf",
      "outputs": [
        {
          "name": "",
          "type": "uint256"
        }
      ],
      "payable": false,
      "stateMutability": "view",
      "type": "function"
    }
  ],
  "bytecode": "0x6060604052341561000f57600080fd5b60e08061001d6000396000f300606060405260043610603f576000357c0100000000000000000000000000000000000000000000000000000000900463ffffffff16806303147f39146044575b600080fd5b3415604e57600080fd5b6078600480803573ffffffffffffffffffffffffffffffffffffffff16906020019091905050608e565b6040518082815260200191505060405180910390f35b6000808273ffffffffffffffffffffffffffffffffffffffff16319050809150509190505600a165627a7a7230582063e21d750ded48a411179192d2d84d86c12b1ac2683cc8cb009fffcf8ac549670029",
  "source": "pragma solidity ^0.4.18;\r\n\r\ncontract checkBalance {\r\n\tfunction checkBalanceOf(address owner) constant returns (uint256) {\r\n\t\tuint256 balance = owner.balance;\r\n\t\treturn balance;\r\n\t}\r\n}",
  "sourcePath": "E:\\Work\\project1\\web\\CheckBalance\\contracts\\chechBalance.sol",
  "compiler": {
    "name": "solc",
    "version": "0.4.18+commit.9cf6e910.Emscripten.clang"
  },
  "schemaVersion": "1.0.1",
  "updatedAt": "2017-12-29T12:48:46.397Z"
}