{
  "contractName": "TestToken",
  "abi": [
    {
      "constant": true,
      "inputs": [],
      "name": "name",
      "outputs": [
        {
          "name": "",
          "type": "string"
        }
      ],
      "payable": false,
      "stateMutability": "view",
      "type": "function"
    },
    {
      "constant": false,
      "inputs": [
        {
          "name": "_spender",
          "type": "address"
        },
        {
          "name": "_value",
          "type": "uint256"
        }
      ],
      "name": "approve",
      "outputs": [
        {
          "name": "success",
          "type": "bool"
        }
      ],
      "payable": false,
      "stateMutability": "nonpayable",
      "type": "function"
    },
    {
      "constant": false,
      "inputs": [
        {
          "name": "_to",
          "type": "address[]"
        },
        {
          "name": "_value",
          "type": "uint256[]"
        }
      ],
      "name": "transferA",
      "outputs": [
        {
          "name": "totalSupply",
          "type": "uint256"
        }
      ],
      "payable": false,
      "stateMutability": "nonpayable",
      "type": "function"
    },
    {
      "constant": true,
      "inputs": [
        {
          "name": "_from",
          "type": "address"
        },
        {
          "name": "_to",
          "type": "address"
        },
        {
          "name": "_value",
          "type": "uint256"
        }
      ],
      "name": "totalSupply",
      "outputs": [
        {
          "name": "totalSupply",
          "type": "uint256"
        }
      ],
      "payable": false,
      "stateMutability": "view",
      "type": "function"
    },
    {
      "constant": false,
      "inputs": [
        {
          "name": "_from",
          "type": "address"
        },
        {
          "name": "_to",
          "type": "address"
        },
        {
          "name": "_value",
          "type": "uint256"
        }
      ],
      "name": "transferFrom",
      "outputs": [
        {
          "name": "success",
          "type": "bool"
        }
      ],
      "payable": false,
      "stateMutability": "nonpayable",
      "type": "function"
    },
    {
      "constant": true,
      "inputs": [
        {
          "name": "_owner",
          "type": "address"
        }
      ],
      "name": "decimals",
      "outputs": [
        {
          "name": "",
          "type": "uint8"
        }
      ],
      "payable": false,
      "stateMutability": "view",
      "type": "function"
    },
    {
      "constant": true,
      "inputs": [
        {
          "name": "_owner",
          "type": "address"
        }
      ],
      "name": "balanceOf",
      "outputs": [
        {
          "name": "balance",
          "type": "uint256"
        }
      ],
      "payable": false,
      "stateMutability": "view",
      "type": "function"
    },
    {
      "constant": true,
      "inputs": [],
      "name": "owner",
      "outputs": [
        {
          "name": "",
          "type": "address"
        }
      ],
      "payable": false,
      "stateMutability": "view",
      "type": "function"
    },
    {
      "constant": true,
      "inputs": [
        {
          "name": "_to",
          "type": "address"
        },
        {
          "name": "_value",
          "type": "uint256"
        }
      ],
      "name": "symbol",
      "outputs": [
        {
          "name": "",
          "type": "string"
        }
      ],
      "payable": false,
      "stateMutability": "view",
      "type": "function"
    },
    {
      "constant": false,
      "inputs": [
        {
          "name": "_to",
          "type": "address"
        },
        {
          "name": "_value",
          "type": "uint256"
        }
      ],
      "name": "transfer",
      "outputs": [
        {
          "name": "success",
          "type": "bool"
        }
      ],
      "payable": false,
      "stateMutability": "nonpayable",
      "type": "function"
    },
    {
      "inputs": [
        {
          "name": "_owner",
          "type": "address"
        },
        {
          "name": "_spender",
          "type": "address"
        }
      ],
      "payable": false,
      "stateMutability": "view",
      "type": "function",
      "constant": true,
      "name": "allowance",
      "outputs": [
        {
          "name": "remaining",
          "type": "uint256"
        }
      ]
    },
    {
      "anonymous": false,
      "inputs": [
        {
          "indexed": true,
          "name": "_from",
          "type": "address"
        },
        {
          "indexed": true,
          "name": "_to",
          "type": "address"
        },
        {
          "indexed": false,
          "name": "_value",
          "type": "uint256"
        }
      ],
      "name": "Transfer",
      "type": "constructor",
      "payable": false,
      "stateMutability": "nonpayable"
    },
    {
      "anonymous": false,
      "inputs": [
        {
          "indexed": true,
          "name": "_from",
          "type": "address"
        },
        {
          "indexed": true,
          "name": "_to",
          "type": "address"
        },
        {
          "indexed": false,
          "name": "_value",
          "type": "uint256"
        }
      ],
      "name": "Transfer",
      "type": "event"
    },
    {
      "anonymous": false,
      "inputs": [
        {
          "indexed": true,
          "name": "_owner",
          "type": "address"
        },
        {
          "indexed": true,
          "name": "_spender",
          "type": "address"
        },
        {
          "indexed": false,
          "name": "_value",
          "type": "uint256"
        }
      ],
      "name": "Approval",
      "type": "event"
    }
  ],
  "bytecode": "0x6060604052620f4240600055341561001657600080fd5b33600160006101000a81548173ffffffffffffffffffffffffffffffffffffffff021916908373ffffffffffffffffffffffffffffffffffffffff16021790555060005460026000600160009054906101000a900473ffffffffffffffffffffffffffffffffffffffff1673ffffffffffffffffffffffffffffffffffffffff1673ffffffffffffffffffffffffffffffffffffffff16815260200190815260200160002081905550610c55806100ce6000396000f3006060604052600436106100af576000357c0100000000000000000000000000000000000000000000000000000000900463ffffffff16806306fdde03146100b4578063095ea7b314610142578063167c2c8a1461019c57806318160ddd1461023657806323b872dd1461025f578063313ce567146102d857806370a08231146103075780638da5cb5b1461035457806395d89b41146103a9578063a9059cbb14610437578063dd62ed3e14610491575b600080fd5b34156100bf57600080fd5b6100c76104fd565b6040518080602001828103825283818151815260200191508051906020019080838360005b838110156101075780820151818401526020810190506100ec565b50505050905090810190601f1680156101345780820380516001836020036101000a031916815260200191505b509250505060405180910390f35b341561014d57600080fd5b610182600480803573ffffffffffffffffffffffffffffffffffffffff16906020019091908035906020019091905050610536565b604051808215151515815260200191505060405180910390f35b34156101a757600080fd5b61023460048080359060200190820180359060200190808060200260200160405190810160405280939291908181526020018383602002808284378201915050505050509190803590602001908201803590602001908080602002602001604051908101604052809392919081815260200183836020028082843782019150505050505091905050610628565b005b341561024157600080fd5b610249610682565b6040518082815260200191505060405180910390f35b341561026a57600080fd5b6102be600480803573ffffffffffffffffffffffffffffffffffffffff1690602001909190803573ffffffffffffffffffffffffffffffffffffffff1690602001909190803590602001909190505061068e565b604051808215151515815260200191505060405180910390f35b34156102e357600080fd5b6102eb610900565b604051808260ff1660ff16815260200191505060405180910390f35b341561031257600080fd5b61033e600480803573ffffffffffffffffffffffffffffffffffffffff16906020019091905050610905565b6040518082815260200191505060405180910390f35b341561035f57600080fd5b61036761094e565b604051808273ffffffffffffffffffffffffffffffffffffffff1673ffffffffffffffffffffffffffffffffffffffff16815260200191505060405180910390f35b34156103b457600080fd5b6103bc610974565b6040518080602001828103825283818151815260200191508051906020019080838360005b838110156103fc5780820151818401526020810190506103e1565b50505050905090810190601f1680156104295780820380516001836020036101000a031916815260200191505b509250505060405180910390f35b341561044257600080fd5b610477600480803573ffffffffffffffffffffffffffffffffffffffff169060200190919080359060200190919050506109ad565b604051808215151515815260200191505060405180910390f35b341561049c57600080fd5b6104e7600480803573ffffffffffffffffffffffffffffffffffffffff1690602001909190803573ffffffffffffffffffffffffffffffffffffffff16906020019091905050610ba2565b6040518082815260200191505060405180910390f35b6040805190810160405280600c81526020017f44696d61607320546f6b656e000000000000000000000000000000000000000081525081565b600081600360003373ffffffffffffffffffffffffffffffffffffffff1673ffffffffffffffffffffffffffffffffffffffff16815260200190815260200160002060008573ffffffffffffffffffffffffffffffffffffffff1673ffffffffffffffffffffffffffffffffffffffff168152602001908152602001600020819055508273ffffffffffffffffffffffffffffffffffffffff163373ffffffffffffffffffffffffffffffffffffffff167f8c5be1e5ebec7d5bd14f71427d1e84f3dd0314c0f7b2291e5b200ac8c7c3b925846040518082815260200191505060405180910390a36001905092915050565b60008090505b825181101561067d5761066f838281518110151561064857fe5b90602001906020020151838381518110151561066057fe5b906020019060200201516109ad565b50808060010191505061062e565b505050565b60008054905080905090565b600081600260008673ffffffffffffffffffffffffffffffffffffffff1673ffffffffffffffffffffffffffffffffffffffff168152602001908152602001600020541015801561075f5750600260008473ffffffffffffffffffffffffffffffffffffffff1673ffffffffffffffffffffffffffffffffffffffff1681526020019081526020016000205482600260008673ffffffffffffffffffffffffffffffffffffffff1673ffffffffffffffffffffffffffffffffffffffff168152602001908152602001600020540110155b80156107e7575081600360008673ffffffffffffffffffffffffffffffffffffffff1673ffffffffffffffffffffffffffffffffffffffff16815260200190815260200160002060003373ffffffffffffffffffffffffffffffffffffffff1673ffffffffffffffffffffffffffffffffffffffff1681526020019081526020016000205410155b156108f45781600260008673ffffffffffffffffffffffffffffffffffffffff1673ffffffffffffffffffffffffffffffffffffffff1681526020019081526020016000206000828254039250508190555081600260008573ffffffffffffffffffffffffffffffffffffffff1673ffffffffffffffffffffffffffffffffffffffff168152602001908152602001600020600082825401925050819055508273ffffffffffffffffffffffffffffffffffffffff168473ffffffffffffffffffffffffffffffffffffffff167fddf252ad1be2c89b69c2b068fc378daa952ba7f163c4a11628f55a4df523b3ef846040518082815260200191505060405180910390a3600190506108f9565b600090505b9392505050565b600081565b6000600260008373ffffffffffffffffffffffffffffffffffffffff1673ffffffffffffffffffffffffffffffffffffffff168152602001908152602001600020549050919050565b600160009054906101000a900473ffffffffffffffffffffffffffffffffffffffff1681565b6040805190810160405280600281526020017f445400000000000000000000000000000000000000000000000000000000000081525081565b600081600260003373ffffffffffffffffffffffffffffffffffffffff1673ffffffffffffffffffffffffffffffffffffffff16815260200190815260200160002054101580156109fe5750600082115b8015610a8a5750600260008473ffffffffffffffffffffffffffffffffffffffff1673ffffffffffffffffffffffffffffffffffffffff1681526020019081526020016000205482600260008673ffffffffffffffffffffffffffffffffffffffff1673ffffffffffffffffffffffffffffffffffffffff168152602001908152602001600020540110155b15610b975781600260003373ffffffffffffffffffffffffffffffffffffffff1673ffffffffffffffffffffffffffffffffffffffff1681526020019081526020016000206000828254039250508190555081600260008573ffffffffffffffffffffffffffffffffffffffff1673ffffffffffffffffffffffffffffffffffffffff168152602001908152602001600020600082825401925050819055508273ffffffffffffffffffffffffffffffffffffffff163373ffffffffffffffffffffffffffffffffffffffff167fddf252ad1be2c89b69c2b068fc378daa952ba7f163c4a11628f55a4df523b3ef846040518082815260200191505060405180910390a360019050610b9c565b600090505b92915050565b6000600360008473ffffffffffffffffffffffffffffffffffffffff1673ffffffffffffffffffffffffffffffffffffffff16815260200190815260200160002060008373ffffffffffffffffffffffffffffffffffffffff1673ffffffffffffffffffffffffffffffffffffffff168152602001908152602001600020549050929150505600a165627a7a72305820702d8afe5faa23390b59df32d12a38988229b3aaf88450601dd8214223bb3a120029",
  "source": "pragma solidity ^0.4.18;\r\n\r\ncontract TestToken {\r\n\tstring public constant name = \"Dima`s Token\";\r\n\tstring public constant symbol = \"DT\";\r\n\tuint8 public constant decimals = 0;\r\n\r\n\tuint256 _totalSupply = 1000000;\r\n\r\n\taddress public owner;\r\n\r\n\tmapping (address => uint256) balances;\r\n\r\n\tmapping (address => mapping (address => uint256)) allowed;\r\n\r\n\tfunction TestToken() public {\r\n\t\towner = msg.sender;\r\n\t\tbalances[owner] = _totalSupply;\r\n\t}\r\n\r\n\r\n\tfunction totalSupply() public constant returns (uint256 totalSupply) {\r\n\t\ttotalSupply = _totalSupply;\r\n\t\treturn totalSupply;\r\n\t}\r\n\r\n\tfunction balanceOf(address _owner) public constant returns (uint256 balance) {\r\n\t\treturn balances[_owner];\r\n\t}\r\n\r\n\tfunction transfer(address _to, uint256 _value) returns (bool success) {\r\n\t\tif(balances[msg.sender] >= _value && _value > 0 && balances[_to] + _value >= balances[_to]) { \r\n\t\t\tbalances[msg.sender] -= _value;\r\n\t\t\tbalances[_to] += _value;\r\n\t\t\tTransfer(msg.sender, _to, _value);\r\n\t\t\treturn true;\r\n\t\t}\r\n\t\telse {\r\n\t\t\treturn false;\r\n\t\t}\r\n\t}\r\n\r\n\tfunction transferA(address[] _to, uint256[] _value) {\r\n\t\tfor(uint i=0; i<_to.length; i++) {\t\t\r\n\t\t\ttransfer(_to[i], _value[i]);\r\n\t\t}\r\n\t}\r\n\r\n\tfunction transferFrom(address _from, address _to, uint256 _value) returns (bool success) {\r\n\t\tif(balances[_from] >= _value && balances[_to] + _value >= balances[_to] && allowed[_from][msg.sender] >= _value) { \r\n\t\t\tbalances[_from] -= _value;\r\n\t\t\tbalances[_to] += _value;\r\n\t\t\tTransfer(_from, _to, _value);\r\n\t\t\treturn true;\r\n\t\t}\r\n\t\telse {\r\n\t\t\treturn false;\r\n\t\t}\r\n\t}\r\n\r\n\tfunction approve(address _spender, uint256 _value) returns (bool success) {\r\n\t\tallowed[msg.sender][_spender] = _value;\r\n\t\tApproval(msg.sender, _spender, _value);\r\n\t\treturn true;\r\n\t}\r\n\r\n\tfunction allowance(address _owner, address _spender) constant returns (uint256 remaining) {\r\n\t\treturn allowed[_owner][_spender];\r\n\t}\r\n\tevent Transfer(address indexed _from, address indexed _to, uint256 _value);\r\n\tevent Approval(address indexed _owner, address indexed _spender, uint256 _value);\r\n\r\n}",
  "sourcePath": "E:\\Work\\project1\\web\\CheckBalance\\contracts\\TestToken.sol",
  "compiler": {
    "name": "solc",
    "version": "0.4.18+commit.9cf6e910.Emscripten.clang"
  },
  "schemaVersion": "1.0.1",
  "updatedAt": "2018-01-09T12:55:58.580Z"
}